{
  "transactions": [
    {
      "hash": "0x99bc2e29c82f98aef72db1afab7658c91df9a16bd19f7412a3b7c64e52ddec61",
      "transactionType": "CALL",
      "contractName": "LinkToken",
      "contractAddress": "0x779877a7b0d9e8603169ddbd7836e478b4624789",
      "function": "transferAndCall(address,uint256,bytes)",
      "arguments": [
        "0x9DdfaCa8183c41ad55329BdeeD9F6A8d53168B1B",
        "3000000000000000000",
        "0x1a3ba2949a56cf0d40ecaf3ec280f87dbb6664a9bf43d6acb93d8de79d87bfbc"
      ],
      "transaction": {
        "from": "0x7cc477e9eb41c6d1d54234952932afb22d955e43",
        "to": "0x779877a7b0d9e8603169ddbd7836e478b4624789",
        "gas": "0x14cbb",
        "value": "0x0",
        "input": "0x4000aea00000000000000000000000009ddfaca8183c41ad55329bdeed9f6a8d53168b1b00000000000000000000000000000000000000000000000029a2241af62c0000000000000000000000000000000000000000000000000000000000000000006000000000000000000000000000000000000000000000000000000000000000201a3ba2949a56cf0d40ecaf3ec280f87dbb6664a9bf43d6acb93d8de79d87bfbc",
        "nonce": "0x18",
        "chainId": "0xaa36a7"
      },
      "additionalContracts": [],
      "isFixedGasLimit": false
    }
  ],
  "receipts": [
    {
      "status": "0x1",
      "cumulativeGasUsed": "0x284e4e0",
      "logs": [
        {
          "address": "0x779877a7b0d9e8603169ddbd7836e478b4624789",
          "topics": [
            "0xddf252ad1be2c89b69c2b068fc378daa952ba7f163c4a11628f55a4df523b3ef",
            "0x0000000000000000000000007cc477e9eb41c6d1d54234952932afb22d955e43",
            "0x0000000000000000000000009ddfaca8183c41ad55329bdeed9f6a8d53168b1b"
          ],
          "data": "0x00000000000000000000000000000000000000000000000029a2241af62c0000",
          "blockHash": "0x20984e33cddb786003b30788e8f3f9b8ee0607ba0f31e1cbe6ba214ce3d21d78",
          "blockNumber": "0x8d8c80",
          "blockTimestamp": "0x68d52674",
          "transactionHash": "0x99bc2e29c82f98aef72db1afab7658c91df9a16bd19f7412a3b7c64e52ddec61",
          "transactionIndex": "0x6b",
          "logIndex": "0x69",
          "removed": false
        },
        {
          "address": "0x779877a7b0d9e8603169ddbd7836e478b4624789",
          "topics": [
            "0xe19260aff97b920c7df27010903aeb9c8d2be5d310a2c67824cf3f15396e4c16",
            "0x0000000000000000000000007cc477e9eb41c6d1d54234952932afb22d955e43",
            "0x0000000000000000000000009ddfaca8183c41ad55329bdeed9f6a8d53168b1b"
          ],
          "data": "0x00000000000000000000000000000000000000000000000029a2241af62c0000000000000000000000000000000000000000000000000000000000000000004000000000000000000000000000000000000000000000000000000000000000201a3ba2949a56cf0d40ecaf3ec280f87dbb6664a9bf43d6acb93d8de79d87bfbc",
          "blockHash": "0x20984e33cddb786003b30788e8f3f9b8ee0607ba0f31e1cbe6ba214ce3d21d78",
          "blockNumber": "0x8d8c80",
          "blockTimestamp": "0x68d52674",
          "transactionHash": "0x99bc2e29c82f98aef72db1afab7658c91df9a16bd19f7412a3b7c64e52ddec61",
          "transactionIndex": "0x6b",
          "logIndex": "0x6a",
          "removed": false
        },
        {
          "address": "0x9ddfaca8183c41ad55329bdeed9f6a8d53168b1b",
          "topics": [
            "0x1ced9348ff549fceab2ac57cd3a9de38edaaab274b725ee82c23e8fc8c4eec7a",
            "0x1a3ba2949a56cf0d40ecaf3ec280f87dbb6664a9bf43d6acb93d8de79d87bfbc"
          ],
          "data": "0x000000000000000000000000000000000000000000000006a3545db4018fa65a000000000000000000000000000000000000000000000006ccf681cef7bba65a",
          "blockHash": "0x20984e33cddb786003b30788e8f3f9b8ee0607ba0f31e1cbe6ba214ce3d21d78",
          "blockNumber": "0x8d8c80",
          "blockTimestamp": "0x68d52674",
          "transactionHash": "0x99bc2e29c82f98aef72db1afab7658c91df9a16bd19f7412a3b7c64e52ddec61",
          "transactionIndex": "0x6b",
          "logIndex": "0x6b",
          "removed": false
        }
      ],
      "logsBloom": "0x00000004000000000400000000000000000000000020000000000000020000000000000000000000000000000100000000000000800000000000000000000020000000000000000000000008000000000000000000000000000020040020000008000000000000000000000000000000000000000000000000000010000040000000000000000000000000010000800000000020000000000000000000000000000000000000000000000000010000000000000000000000000004000000000000000002000000000000000000020000000000000000000100000000000000000010000000000000800000000000000000000000000000000000000000000000",
      "type": "0x2",
      "transactionHash": "0x99bc2e29c82f98aef72db1afab7658c91df9a16bd19f7412a3b7c64e52ddec61",
      "transactionIndex": "0x6b",
      "blockHash": "0x20984e33cddb786003b30788e8f3f9b8ee0607ba0f31e1cbe6ba214ce3d21d78",
      "blockNumber": "0x8d8c80",
      "gasUsed": "0xf0e5",
      "effectiveGasPrice": "0xf7ce7",
      "from": "0x7cc477e9eb41c6d1d54234952932afb22d955e43",
      "to": "0x779877a7b0d9e8603169ddbd7836e478b4624789",
      "contractAddress": null
    }
  ],
  "libraries": [],
  "pending": [],
  "returns": {},
  "timestamp": 1758799478186,
  "chain": 11155111,
  "commit": null
}